:201100000A12091208120A4C784A0943113C0E4D0E8B1E831D53FD4EFFFF1F83FB23033C80
:201120001D53FD4AFFFF12C3081019533992EC3718B3F6237B4A7F4A0C4BB012E2120B4CDD
:201140000C4FB012B6113CF00F000BDC3FF00F003F5003003F9012000C207E4A3EB0800076
:2011600007247C4A4C4CB012DC123EF07F000EDC0F5E3B90FF0FCB2330405A133DF00F0052
:201180003DE00F000D5D0D5D005D12C30C1012C30C1012C30C1012C30C1012C30C1012C368
:2011A0000C1012C30C1012C30C1012C30C1012C30C1012C30C1012C30C1012C30C1012C3A7
:2011C0000C1012C30C103041829300021C24929300020E24A29300021A20B0124013B01299
:2011E0008613B2900A0002021220824300020F3CB0127A13B0128613B2900A0002020720A1
:2012000082430002043CB0128013B012621330410A1209123F409A133F909E1316243F402E
:201220009E133F90A21311243A40A2133A809E130A110A1139409E133C497F4C0F5F1F4F1E
:201240009A133D498F121A83F723B012901330405C13B240805A2001D2D32200C2432100E5
:20126000D242FF105700D242FE105600B24024F47201B240F002600132D2B2401000620151
:20128000F2D22500C2432400C2432300B012C811FD3F0F120E120D120C120B12B01262136B
:2012A00092530002B29003000002022882430002C24323003B413C413D413E413F4100135E
:2012C0003DF00F003DE00F000D5D005D0C5C0C5C0C5C0C5C0C5C0C5C0C5C0C5C0C5C0C5CCF
:2012E0000C5C0C5C0C5C0C5C0C5C30413140000AB0128C130C930224B01210120C43B012DF
:2013000052121C43B0127413929304020620B2900A000202022C9253020200130F4C0C4D42
:201320003D4003000D5F1E4F010030402E130E9306240F4C1F53FF4DFFFF1E83FB23304190
:20134000D2E321000D123D4033821D83FE233D4130413441354136413741384139413A416E
:2013600030418243040282430202304132D01000FD3F03430343FF3F0343D24321003041F2
:12138000C243210030419243040230411C433041304137
:101392000001000002FFF00000111C139213000272
:02FFC0006C13C0
:02FFC2006C13BE
:02FFC4006C13BC
:02FFC6006C13BA
:02FFC8006C13B8
:02FFCA006C13B6
:02FFCC006C13B4
:02FFCE006C13B2
:02FFD0006C13B0
:02FFD2006C13AE
:02FFD4006C13AC
:02FFD6006C13AA
:02FFD8006C13A8
:02FFDA006C13A6
:02FFDC006C13A4
:02FFDE00FFFF23
:02FFE0006C13A0
:02FFE2006C139E
:02FFE400921277
:02FFE6006C139A
:02FFE8006C1398
:02FFEA006C1396
:02FFEC006C1394
:02FFEE006C1392
:02FFF0006C1390
:02FFF2000813F2
:02FFF4006C138C
:02FFF6006C138A
:02FFF8006C1388
:02FFFA006C1386
:02FFFC006C1384
:02FFFE00EC1203
:00000001FF
